:1000000002308A004F2A0000F801F901FA01831634
:10001000880183122A088800F901FA010030A4003F
:1000200083168701831229088700FA018316860147
:10003000831228088600831685018312270885000D
:100040000800283084008313000803193428023084
:10005000F800F701F70B2A28F80B29289730F7004A
:10006000F70B3028800B27280800A5012508043C41
:10007000031C5528FF30AA00A900A800A7000420EF
:100080000230A600FA30A8002120A60B4228AA01BF
:10009000A901A801A70104200230A600FA30A80097
:1000A0002120A60B4E28A50A36280800A501250800
:1000B000013C031C9E28A301A201A101A001A601ED
:1000C00026081F3C031C84280310200DA800210DC6
:1000D000A900220DAA00230DAB0028080138A000BA
:1000E0002908A1002A08A2002B08A3002308AA00BF
:1000F0002208A9002108A8002008A7000420C83071
:10010000A8002120A60A6028A60126081F3C031C7F
:100110009C280310A00DA10DA20DA30D2308AA0079
:100120002208A9002108A8002008A7000420C83040
:10013000A8002120A60A8528A50A57288A110A1294
:100140007C2AA5012508013C031CE828A301A20183
:10015000A101A001A60126081F3C031CCE28031004
:10016000230CAB00220CAA00210CA900200CA80033
:10017000A0002908A1002A08A2002B088038A300AB
:100180002308AA002208A9002108A8002008A70027
:100190000420C830A8002120A60AAB28A601260802
:1001A0001F3C031CE6280310A30CA20CA10CA00CFE
:1001B0002308AA002208A9002108A8002008A700F7
:1001C0000420C830A8002120A60ACF28A50AA2280A
:1001D0008A110A127E2AA5012508013C031C9829D0
:1001E000A301A201A101A001A60126080F3C031C46
:1001F0004529FA01F901F8010130F7002608A700A6
:10020000031909290310F70DF80DF90DFA0DA70BC5
:10021000022977082004A80078082104A900790899
:100220002204AA007A082304AB0026081F3CAC0075
:10023000FA01F901F8010130F700AC080319272988
:100240000310F70DF80DF90DFA0DAC0B2029770806
:100250002804A00078082904A10079082A04A20033
:100260007A082B04A3002308AA002208A900210869
:10027000A8002008A70004200230A7009630A8009C
:100280002120A70B3E29A60AF528A60126080F3C27
:10029000031C9629AB01AA01A9010130A800260878
:1002A000A70003195A290310A80DA90DAA0DAB0D1B
:1002B000A70B532926081F3CAC00FA01F901F801ED
:1002C0000130F700AC0803196C290310F70DF80D85
:1002D000F90DFA0DAC0B652977082804F7007808AA
:1002E0002904F80079082A04F9007A082B04FA0096
:1002F000F709F809F909FA097708A0057808A105AE
:100300007908A2057A08A3052308AA002208A900F3
:100310002108A8002008A70004200230A70096307A
:10032000A8002120A70B8F29A60A4629A50AEC2898
:100330008A110A127F2AA5012508013C031C4C2AB8
:10034000A301A201A101A001A60126080F3C031CE4
:10035000F72926080F3CA700FA01F901F80101303E
:10036000F700A7080319BB290310F70DF80DF90DC5
:10037000FA0DA70BB42977082004A80078082104F7
:10038000A90079082204AA007A082304AB001030DF
:100390002607AC00FA01F901F8010130F700AC08BA
:1003A0000319D9290310F70DF80DF90DFA0DAC0B4F
:1003B000D22977082804A00078082904A100790828
:1003C0002A04A2007A082B04A3002308AA0022080A
:1003D000A9002108A8002008A70004200230A700D7
:1003E0009630A8002120A70BF029A60AA529A6016E
:1003F00026080F3C031C4A2A26080F3CA700AB0125
:10040000AA01A9010130A800A70803190E2A0310A8
:10041000A80DA90DAA0DAB0DA70B072A10302607B2
:10042000AC00FA01F901F8010130F700AC0803193A
:10043000202A0310F70DF80DF90DFA0DAC0B192A4F
:1004400077082804F70078082904F80079082A04B6
:10045000F9007A082B04FA00F709F809F909FA09F2
:100460007708A0057808A1057908A2057A08A305F0
:100470002308AA002208A9002108A8002008A70034
:1004800004200230A7009630A8002120A70B432AA1
:10049000A60AF829A50A9C298A110A12812A0308AA
:1004A0001F398300713083168F0090010F08FF30D1
:1004B0008312A400831603170908C03989000313A7
:1004C0001F129F12003003178800831287018801D2
:1004D000890183130030831603138500860087008B
:1004E0008312A400831688008312AA01A901A8011F
:1004F000A7010420352056283520A128EB283520D7
:060500009B297A2A63002A
:04400E00E42F000794
:00000001FF
;PIC16F887
;CRC=56E9  CREATED="14-Thg3-26 08:27"
