:1000000000308A0018280000223084008313000882
:10001000031917280630F800F701F70B0D28F80B25
:100020000C287B30F700F70B1328800B0A280800F8
:1000300003081F398300FF30A00083160317090847
:10004000C039890003131F129F1200300317880064
:1000500083128701880189018313003083160313FB
:1000600087008312A000831688008312A0008316E5
:10007000870183128701831688018312880100306B
:10008000A00083168701FF30831287008316880142
:10009000831288000230A100FA30A2000420A10BD4
:1000A0004C280030A0008316870183128701831635
:1000B0008801831288010230A100FA30A2000420D6
:0800C000A10B5D283F2863003D
:04400E00E22F000796
:00000001FF
;PIC16F887
;CRC=C3EB  CREATED="06-Thg3-26 00:19"
