:1000000000308A00352800008316850183122608F7
:100010008500FA0183168601831227088600F901FC
:10002000FA010030A0008316870183122808870098
:10003000F801F901FA018316880183122908880062
:100040000800263084008313000803193428023086
:10005000F800F701F70B2A28F80B29289730F7004A
:10006000F70B3028800B2728080003081F3983006E
:10007000713083168F0090010F08FF308312A000AB
:10008000831603170908C039890003131F129F1232
:1000900000300317880083128701880189018313C8
:1000A0000030831603138500860087008312A000AA
:1000B000831688008312A401A301A201A101A50156
:1000C00025081F3C031C84280310210DA700220DC6
:1000D000A800230DA900240DAA0027080138A100BB
:1000E0002808A2002908A3002A08A4002408A900BF
:1000F0002308A8002208A7002108A60004206430D5
:10010000A6002120A50A6028A50125081F3C031C84
:100110009C280310A10DA20DA30DA40D2408A90075
:100120002308A8002208A7002108A60004206430A4
:0C013000A6002120A50A85285B2863009A
:04400E00E42F000794
:00000001FF
;PIC16F887
;CRC=812F  CREATED="08-Thg3-26 14:56"
