:1000000000308A0035280000F801F901FA01831652
:100010008801831232088800F901FA010030AA0031
:1000200083168701831231088700FA01831686013F
:100030008312300886008316850183122F088500FD
:1000400008002C308400831300080319342806307C
:10005000F800F701F70B2A28F80B29287B30F70066
:10006000F70B3028800B2728080003081F3983006E
:10007000FF30AA00831603170908C039890003134B
:100080001F129F1200300317880083128701880116
:1000900089018313003083160313850086008700CF
:1000A0008312AA00831688008312A301A201A10172
:1000B000A0012308B2002208B1002108B0002008E6
:1000C000AF0004201F30A800A81BA428A9012908FC
:1000D000803AF7002808803A77020319712803183C
:1000E0009A28A701A601A5010130A4002908AB00A8
:1000F000031981280310A40DA50DA60DA70DAB0BA8
:100100007A2820082404AB0021082504AC0022082A
:100110002604AD0023082704AE00B2002D08B1006C
:100120002C08B0002B08AF0004201E30AC002120AA
:10013000A90A67282408A0042508A1042608A20407
:100140002708A304A80364280230AB00FA30AC00EF
:0A0150002120AB0BA6285528630000
:04400E00E22F000796
:00000001FF
;PIC16F887
;CRC=51D8  CREATED="08-Thg3-26 17:23"
