:1000000000308A0018280000223084008313000882
:10001000031917280630F800F701F70B0D28F80B25
:100020000C287B30F700F70B1328800B0A280800F8
:1000300003081F398300831603170908C039890094
:1000400003131F129F1200300317880083128701C9
:100050008801890183130030831603138800880107
:100060008312880183168801FF30831288000230D2
:10007000A100FA30A2000420A10B392883168801C0
:10008000831288010230A100FA30A2000420A10BE3
:0600900044283228630041
:04400E00E22F000796
:00000001FF
;PIC16F887
;CRC=2FE2  CREATED="08-Thg3-26 16:09"
