:1000000000308A0018280000223084008313000882
:10001000031917280230F800F701F70B0D28F80B29
:100020000C289730F700F70B1328800B0A280800DC
:1000300003081F398300713083168F0090010F0869
:10004000FF308312A000831603170908C039890006
:1000500003131F129F1200300317880083128701B9
:1000600088018901831383160908C03989000313A5
:100070001F129F12003003178800031385008600AB
:1000800087008312A00083168800850183128501F2
:100090008316860183128601A000831687018312CE
:1000A0008701831688018312880183168501FF303A
:1000B0008312850083168601831286000030A0001B
:1000C00083168701FF30831287008316880183120D
:1000D00088000230A100FA30A2000420A10B6B2896
:1000E000831685018312850183168601831286019A
:1000F0000030A000831687018312870183168801D0
:10010000831288010230A100FA30A2000420A10B62
:060110008428552863005D
:04400E00E42F000794
:00000001FF
;PIC16F887
;CRC=F2F0  CREATED="06-Thg3-26 00:36"
