:1000000000308A0018280000243084008313000880
:10001000031917280630F800F701F70B0D28F80B25
:100020000C287B30F700F70B1328800B0A280800F8
:1000300003081F398300FF30A00083160317090847
:10004000C039890003131F129F1200300317880064
:1000500083128701880189018313003083160313FB
:1000600087008312A000831688008312A0008316E5
:100070008701831287018316880183128801A201F8
:10008000A101A30123080F3C031C63280310220CC9
:10009000A500210CA400A10025088038A200003092
:1000A000A000831687018312210887002208FA0125
:1000B000A40083168801831224088800C830A40095
:1000C0000420A30A4228A30123080F3C031C7F2815
:1000D0000310A20CA10C0030A0008316870183122C
:1000E000210887002208FA01A400831688018312E0
:1000F00024088800C830A4000420A30A64283F28EC
:0201000063009A
:04400E00E22F000796
:00000001FF
;PIC16F887
;CRC=D685  CREATED="06-Thg3-26 00:51"
