:1000000000308A00352800008316850183122608F7
:100010008500FA0183168601831227088600F901FC
:10002000FA010030A0008316870183122808870098
:10003000F801F901FA018316880183122908880062
:100040000800273084008313000803193428023085
:10005000F800F701F70B2A28F80B29289730F7004A
:10006000F70B3028800B2728080003081F3983006E
:10007000713083168F0090010F08FF308312A000AB
:10008000831603170908C039890003131F129F1232
:1000900000300317880083128701880189018313C8
:1000A00083160908C039890003131F129F120030FC
:1000B0000317880003138500860087008312A000C1
:1000C000831688008312A401A301A201A1012408C0
:1000D000A9002308A8002208A7002108A6000420E0
:1000E0000230A600FA30A7002120A60B7228A50135
:1000F00025080F3C031CC828FA01F901F80101305A
:10010000F7002508A60003198C280310F70DF80D39
:10011000F90DFA0DA60B852877082104A7007808A9
:100120002204A80079082304A9007A082404AA005C
:1001300025081F3CAB00FA01F901F8010130F70076
:10014000AB080319AA280310F70DF80DF90DFA0DE5
:10015000AB0BA32877082704A10078082804A20085
:1001600079082904A3007A082A04A4002408A90015
:100170002308A8002208A7002108A60004200230B6
:10018000A600FA30A7002120A60BC128A50A7828CE
:10019000A50125080F3C031C1929AA01A901A801E2
:1001A0000130A7002508A6000319DD280310A70DBC
:1001B000A80DA90DAA0DA60BD62825081F3CAB003B
:1001C000FA01F901F8010130F700AB080319EF2833
:1001D0000310F70DF80DF90DFA0DAB0BE8287708B1
:1001E0002704F70078082804F80079082904F900A2
:1001F0007A082A04FA00F709F809F909FA097708D0
:10020000A1057808A2057908A3057A08A4052408A1
:10021000A9002308A8002208A7002108A60004209E
:100220000230A600FA30A7002120A60B1229A50A49
:06023000C92863286300E9
:04400E00E42F000794
:00000001FF
;PIC16F887
;CRC=C36C  CREATED="06-Thg3-26 15:39"
