:1000000000308A00352800008316850183122608F7
:100010008500FA0183168601831227088600F901FC
:10002000FA010030A0008316870183122808870098
:10003000F801F901FA018316880183122908880062
:100040000800273084008313000803193428023085
:10005000F800F701F70B2A28F80B29289730F7004A
:10006000F70B3028800B2728080003081F3983006E
:10007000713083168F0090010F08FF308312A000AB
:10008000831603170908C039890003131F129F1232
:1000900000300317880083128701880189018313C8
:1000A00083160908C039890003131F129F120030FC
:1000B0000317880003138500860087008312A000C1
:1000C000831688008312A401A301A201A1012408C0
:1000D000A9002308A8002208A7002108A6000420E0
:1000E0000230A600FA30A7002120A60B7228A50135
:1000F00025080F3C031CCA2825080F3CA600FA015E
:10010000F901F8010130F700A60803198E28031041
:10011000F70DF80DF90DFA0DA60B872877082104C5
:10012000A70078082204A80079082304A9007A0807
:100130002404AA0010302507AB00FA01F901F801E8
:100140000130F700AB080319AC280310F70DF80DC8
:10015000F90DFA0DAB0BA52877082704A100780844
:100160002804A20079082904A3007A082A04A4001C
:100170002408A9002308A8002208A7002108A60037
:1001800004200230A600FA30A7002120A60BC328C5
:10019000A50A7828A50125080F3C031C1D29250860
:1001A0000F3CA600AA01A901A8010130A700A608DA
:1001B0000319E1280310A70DA80DA90DAA0DA60B80
:1001C000DA2810302507AB00FA01F901F8010130F7
:1001D000F700AB080319F3280310F70DF80DF90D1C
:1001E000FA0DAB0BEC2877082704F70078082804F1
:1001F000F80079082904F9007A082A04FA00F709B6
:10020000F809F909FA097708A1057808A20579081B
:10021000A3057A08A4052408A9002308A800220839
:10022000A7002108A60004200230A600FA30A7008B
:0E0230002120A60B1629A50ACB2863286300FF
:04400E00E42F000794
:00000001FF
;PIC16F887
;CRC=A8BE  CREATED="07-Thg3-26 14:42"
