:1000000000308A0035280000F801F901FA01831652
:100010008801831229088800F901FA010030A5003F
:1000200083168701831228088700FA018316860148
:10003000831227088600831685018312260885000F
:100040000800263084008313000803193428023086
:10005000F800F701F70B2A28F80B29289730F7004A
:10006000F70B3028800B2728080003081F3983006E
:10007000713083168F0090010F08FF308312A500A6
:10008000831603170908C039890003131F129F1232
:1000900000300317880083128701880189018313C8
:1000A0000030831603138500860087008312A500A5
:1000B000831688008312A301A201A101A0012308D5
:1000C000A9002208A8002108A7002008A6000420F3
:1000D000A40124081F3C031C8C280310230CAA0035
:1000E000220CA900210CA800200CA700A0002808C1
:1000F000A1002908A2002A088038A3002308A9002B
:100100002208A8002108A7002008A60004206430C7
:10011000A6002120A40A6928A40124081F3C031C6E
:10012000A4280310A30CA20CA10CA00C2308A90066
:100130002208A8002108A7002008A6000420643097
:0C014000A6002120A40A8D286828630076
:04400E00E42F000794
:00000001FF
;PIC16F887
;CRC=113F  CREATED="08-Thg3-26 17:46"
